{
  "contractName": "Voting",
  "abi": [
    {
      "anonymous": false,
      "inputs": [
        {
          "indexed": true,
          "internalType": "uint256",
          "name": "_partyId",
          "type": "uint256"
        }
      ],
      "name": "partyCreated",
      "type": "event"
    },
    {
      "anonymous": false,
      "inputs": [
        {
          "indexed": true,
          "internalType": "uint256",
          "name": "_userId",
          "type": "uint256"
        }
      ],
      "name": "userCreated",
      "type": "event"
    },
    {
      "anonymous": false,
      "inputs": [
        {
          "indexed": true,
          "internalType": "uint256",
          "name": "_voteId",
          "type": "uint256"
        }
      ],
      "name": "voteCreated",
      "type": "event"
    },
    {
      "inputs": [],
      "name": "partyCount",
      "outputs": [
        {
          "internalType": "uint256",
          "name": "",
          "type": "uint256"
        }
      ],
      "stateMutability": "view",
      "type": "function",
      "constant": true
    },
    {
      "inputs": [
        {
          "internalType": "uint256",
          "name": "",
          "type": "uint256"
        }
      ],
      "name": "partyList",
      "outputs": [
        {
          "internalType": "string",
          "name": "candidate",
          "type": "string"
        },
        {
          "internalType": "string",
          "name": "partyname",
          "type": "string"
        },
        {
          "internalType": "string",
          "name": "areaname",
          "type": "string"
        },
        {
          "internalType": "string",
          "name": "symbol",
          "type": "string"
        },
        {
          "internalType": "string",
          "name": "aadhar",
          "type": "string"
        }
      ],
      "stateMutability": "view",
      "type": "function",
      "constant": true
    },
    {
      "inputs": [],
      "name": "userCount",
      "outputs": [
        {
          "internalType": "uint256",
          "name": "",
          "type": "uint256"
        }
      ],
      "stateMutability": "view",
      "type": "function",
      "constant": true
    },
    {
      "inputs": [
        {
          "internalType": "uint256",
          "name": "",
          "type": "uint256"
        }
      ],
      "name": "usersList",
      "outputs": [
        {
          "internalType": "string",
          "name": "username",
          "type": "string"
        },
        {
          "internalType": "string",
          "name": "email",
          "type": "string"
        },
        {
          "internalType": "string",
          "name": "password",
          "type": "string"
        },
        {
          "internalType": "string",
          "name": "phone",
          "type": "string"
        },
        {
          "internalType": "string",
          "name": "home_address",
          "type": "string"
        },
        {
          "internalType": "string",
          "name": "aadhar_finger",
          "type": "string"
        }
      ],
      "stateMutability": "view",
      "type": "function",
      "constant": true
    },
    {
      "inputs": [],
      "name": "votingCount",
      "outputs": [
        {
          "internalType": "uint256",
          "name": "",
          "type": "uint256"
        }
      ],
      "stateMutability": "view",
      "type": "function",
      "constant": true
    },
    {
      "inputs": [
        {
          "internalType": "uint256",
          "name": "",
          "type": "uint256"
        }
      ],
      "name": "votingList",
      "outputs": [
        {
          "internalType": "string",
          "name": "user",
          "type": "string"
        },
        {
          "internalType": "string",
          "name": "party",
          "type": "string"
        },
        {
          "internalType": "string",
          "name": "date",
          "type": "string"
        },
        {
          "internalType": "string",
          "name": "candidate",
          "type": "string"
        }
      ],
      "stateMutability": "view",
      "type": "function",
      "constant": true
    },
    {
      "inputs": [
        {
          "internalType": "string",
          "name": "cn",
          "type": "string"
        },
        {
          "internalType": "string",
          "name": "pn",
          "type": "string"
        },
        {
          "internalType": "string",
          "name": "an",
          "type": "string"
        },
        {
          "internalType": "string",
          "name": "sy",
          "type": "string"
        },
        {
          "internalType": "string",
          "name": "aa",
          "type": "string"
        }
      ],
      "name": "createParty",
      "outputs": [],
      "stateMutability": "nonpayable",
      "type": "function"
    },
    {
      "inputs": [],
      "name": "getPartyCount",
      "outputs": [
        {
          "internalType": "uint256",
          "name": "",
          "type": "uint256"
        }
      ],
      "stateMutability": "view",
      "type": "function",
      "constant": true
    },
    {
      "inputs": [
        {
          "internalType": "uint256",
          "name": "i",
          "type": "uint256"
        }
      ],
      "name": "getCandidateName",
      "outputs": [
        {
          "internalType": "string",
          "name": "",
          "type": "string"
        }
      ],
      "stateMutability": "view",
      "type": "function",
      "constant": true
    },
    {
      "inputs": [
        {
          "internalType": "uint256",
          "name": "i",
          "type": "uint256"
        }
      ],
      "name": "getPartyName",
      "outputs": [
        {
          "internalType": "string",
          "name": "",
          "type": "string"
        }
      ],
      "stateMutability": "view",
      "type": "function",
      "constant": true
    },
    {
      "inputs": [
        {
          "internalType": "uint256",
          "name": "i",
          "type": "uint256"
        }
      ],
      "name": "getArea",
      "outputs": [
        {
          "internalType": "string",
          "name": "",
          "type": "string"
        }
      ],
      "stateMutability": "view",
      "type": "function",
      "constant": true
    },
    {
      "inputs": [
        {
          "internalType": "uint256",
          "name": "i",
          "type": "uint256"
        }
      ],
      "name": "getSymbol",
      "outputs": [
        {
          "internalType": "string",
          "name": "",
          "type": "string"
        }
      ],
      "stateMutability": "view",
      "type": "function",
      "constant": true
    },
    {
      "inputs": [
        {
          "internalType": "string",
          "name": "usr",
          "type": "string"
        },
        {
          "internalType": "string",
          "name": "party",
          "type": "string"
        },
        {
          "internalType": "string",
          "name": "dd",
          "type": "string"
        },
        {
          "internalType": "string",
          "name": "candidate",
          "type": "string"
        }
      ],
      "name": "createVote",
      "outputs": [],
      "stateMutability": "nonpayable",
      "type": "function"
    },
    {
      "inputs": [],
      "name": "getVotingCount",
      "outputs": [
        {
          "internalType": "uint256",
          "name": "",
          "type": "uint256"
        }
      ],
      "stateMutability": "view",
      "type": "function",
      "constant": true
    },
    {
      "inputs": [
        {
          "internalType": "uint256",
          "name": "i",
          "type": "uint256"
        }
      ],
      "name": "getUser",
      "outputs": [
        {
          "internalType": "string",
          "name": "",
          "type": "string"
        }
      ],
      "stateMutability": "view",
      "type": "function",
      "constant": true
    },
    {
      "inputs": [
        {
          "internalType": "uint256",
          "name": "i",
          "type": "uint256"
        }
      ],
      "name": "getParty",
      "outputs": [
        {
          "internalType": "string",
          "name": "",
          "type": "string"
        }
      ],
      "stateMutability": "view",
      "type": "function",
      "constant": true
    },
    {
      "inputs": [
        {
          "internalType": "uint256",
          "name": "i",
          "type": "uint256"
        }
      ],
      "name": "getDate",
      "outputs": [
        {
          "internalType": "string",
          "name": "",
          "type": "string"
        }
      ],
      "stateMutability": "view",
      "type": "function",
      "constant": true
    },
    {
      "inputs": [
        {
          "internalType": "uint256",
          "name": "i",
          "type": "uint256"
        }
      ],
      "name": "getCandidate",
      "outputs": [
        {
          "internalType": "string",
          "name": "",
          "type": "string"
        }
      ],
      "stateMutability": "view",
      "type": "function",
      "constant": true
    },
    {
      "inputs": [
        {
          "internalType": "string",
          "name": "_username",
          "type": "string"
        },
        {
          "internalType": "string",
          "name": "_email",
          "type": "string"
        },
        {
          "internalType": "string",
          "name": "_password",
          "type": "string"
        },
        {
          "internalType": "string",
          "name": "_phone",
          "type": "string"
        },
        {
          "internalType": "string",
          "name": "_address",
          "type": "string"
        },
        {
          "internalType": "string",
          "name": "af",
          "type": "string"
        }
      ],
      "name": "createUser",
      "outputs": [],
      "stateMutability": "nonpayable",
      "type": "function"
    },
    {
      "inputs": [],
      "name": "getUserCount",
      "outputs": [
        {
          "internalType": "uint256",
          "name": "",
          "type": "uint256"
        }
      ],
      "stateMutability": "view",
      "type": "function",
      "constant": true
    },
    {
      "inputs": [
        {
          "internalType": "uint256",
          "name": "i",
          "type": "uint256"
        }
      ],
      "name": "getUsername",
      "outputs": [
        {
          "internalType": "string",
          "name": "",
          "type": "string"
        }
      ],
      "stateMutability": "view",
      "type": "function",
      "constant": true
    },
    {
      "inputs": [
        {
          "internalType": "uint256",
          "name": "i",
          "type": "uint256"
        }
      ],
      "name": "getPassword",
      "outputs": [
        {
          "internalType": "string",
          "name": "",
          "type": "string"
        }
      ],
      "stateMutability": "view",
      "type": "function",
      "constant": true
    },
    {
      "inputs": [
        {
          "internalType": "uint256",
          "name": "i",
          "type": "uint256"
        }
      ],
      "name": "getEmail",
      "outputs": [
        {
          "internalType": "string",
          "name": "",
          "type": "string"
        }
      ],
      "stateMutability": "view",
      "type": "function",
      "constant": true
    },
    {
      "inputs": [
        {
          "internalType": "uint256",
          "name": "i",
          "type": "uint256"
        }
      ],
      "name": "getAadharFinger",
      "outputs": [
        {
          "internalType": "string",
          "name": "",
          "type": "string"
        }
      ],
      "stateMutability": "view",
      "type": "function",
      "constant": true
    }
  ],
  "bytecode": "0x6080604052600080556000600255600060045534801561001e57600080fd5b506135c68061002e6000396000f3fe608060405234801561001057600080fd5b5060043610610175576000357c0100000000000000000000000000000000000000000000000000000000900480636ad6de7e116100e0578063b424ab8411610099578063b424ab84146102fb578063b5cb15f714610304578063e13804a71461030c578063f091bb381461031f578063f18d18cc14610332578063f38c6bb61461034557600080fd5b80636ad6de7e1461029e57806394758218146102b1578063972fe8bc146102c45780639c2aab5e146102d75780639eb8e725146102df578063b0467deb146102e857600080fd5b8063502aa3b511610132578063502aa3b51461020457806358652f4d1461022957806360b960e51461024c578063640e79b7146102545780636418413c146102785780636490c7a81461028b57600080fd5b806301dadb2b1461017a57806307973ccf1461018f5780632b57298b146101ab57806335b8e820146101cb57806338b4730e146101de57806343f1119d146101f1575b600080fd5b61018d6101883660046130bf565b610358565b005b61019860045481565b6040519081526020015b60405180910390f35b6101be6101b93660046131b4565b610484565b6040516101a2919061321a565b6101be6101d93660046131b4565b6106fa565b6101be6101ec3660046131b4565b610970565b6101be6101ff3660046131b4565b610c78565b6102176102123660046131b4565b611012565b6040516101a296959493929190613234565b61023c6102373660046131b4565b611376565b6040516101a294939291906132b6565b600054610198565b6102676102623660046131b4565b6115be565b6040516101a295949392919061330e565b6101be6102863660046131b4565b611894565b6101be6102993660046131b4565b611b0e565b61018d6102ac36600461337b565b611d88565b6101be6102bf3660046131b4565b611e6c565b6101be6102d23660046131b4565b612054565b600254610198565b61019860005481565b6101be6102f63660046131b4565b612360565b61019860025481565b600454610198565b6101be61031a3660046131b4565b6125d4565b61018d61032d366004613428565b61284e565b6101be6103403660046131b4565b612952565b6101be6103533660046131b4565b612c5e565b6040805160c0810182528781526020808201889052818301879052606082018690526080820185905260a082018490526004546000908152600582529290922081518051929391926103ad9284920190612f6a565b5060208281015180516103c69260018501920190612f6a565b50604082015180516103e2916002840191602090910190612f6a565b50606082015180516103fe916003840191602090910190612f6a565b506080820151805161041a916004840191602090910190612f6a565b5060a08201518051610436916005840191602090910190612f6a565b50506004546040519091507f1ed675bb725b3a8b0434b9ee956fe05e4c0e79f9dc67c3f1a717a5bb1fd88fd390600090a260048054906000610477836134fa565b9190505550505050505050565b60606000600360008481526020019081526020016000206040518060800160405290816000820180546104b69061353c565b80601f01602080910402602001604051908101604052809291908181526020018280546104e29061353c565b801561052f5780601f106105045761010080835404028352916020019161052f565b820191906000526020600020905b81548152906001019060200180831161051257829003601f168201915b505050505081526020016001820180546105489061353c565b80601f01602080910402602001604051908101604052809291908181526020018280546105749061353c565b80156105c15780601f10610596576101008083540402835291602001916105c1565b820191906000526020600020905b8154815290600101906020018083116105a457829003601f168201915b505050505081526020016002820180546105da9061353c565b80601f01602080910402602001604051908101604052809291908181526020018280546106069061353c565b80156106535780601f1061062857610100808354040283529160200191610653565b820191906000526020600020905b81548152906001019060200180831161063657829003601f168201915b5050505050815260200160038201805461066c9061353c565b80601f01602080910402602001604051908101604052809291908181526020018280546106989061353c565b80156106e55780601f106106ba576101008083540402835291602001916106e5565b820191906000526020600020905b8154815290600101906020018083116106c857829003601f168201915b50505091909252505050604001519392505050565b606060006003600084815260200190815260200160002060405180608001604052908160008201805461072c9061353c565b80601f01602080910402602001604051908101604052809291908181526020018280546107589061353c565b80156107a55780601f1061077a576101008083540402835291602001916107a5565b820191906000526020600020905b81548152906001019060200180831161078857829003601f168201915b505050505081526020016001820180546107be9061353c565b80601f01602080910402602001604051908101604052809291908181526020018280546107ea9061353c565b80156108375780601f1061080c57610100808354040283529160200191610837565b820191906000526020600020905b81548152906001019060200180831161081a57829003601f168201915b505050505081526020016002820180546108509061353c565b80601f016020809104026020016040519081016040528092919081815260200182805461087c9061353c565b80156108c95780601f1061089e576101008083540402835291602001916108c9565b820191906000526020600020905b8154815290600101906020018083116108ac57829003601f168201915b505050505081526020016003820180546108e29061353c565b80601f016020809104026020016040519081016040528092919081815260200182805461090e9061353c565b801561095b5780601f106109305761010080835404028352916020019161095b565b820191906000526020600020905b81548152906001019060200180831161093e57829003601f168201915b50505091909252505050606001519392505050565b60606000600160008481526020019081526020016000206040518060a00160405290816000820180546109a29061353c565b80601f01602080910402602001604051908101604052809291908181526020018280546109ce9061353c565b8015610a1b5780601f106109f057610100808354040283529160200191610a1b565b820191906000526020600020905b8154815290600101906020018083116109fe57829003601f168201915b50505050508152602001600182018054610a349061353c565b80601f0160208091040260200160405190810160405280929190818152602001828054610a609061353c565b8015610aad5780601f10610a8257610100808354040283529160200191610aad565b820191906000526020600020905b815481529060010190602001808311610a9057829003601f168201915b50505050508152602001600282018054610ac69061353c565b80601f0160208091040260200160405190810160405280929190818152602001828054610af29061353c565b8015610b3f5780601f10610b1457610100808354040283529160200191610b3f565b820191906000526020600020905b815481529060010190602001808311610b2257829003601f168201915b50505050508152602001600382018054610b589061353c565b80601f0160208091040260200160405190810160405280929190818152602001828054610b849061353c565b8015610bd15780601f10610ba657610100808354040283529160200191610bd1565b820191906000526020600020905b815481529060010190602001808311610bb457829003601f168201915b50505050508152602001600482018054610bea9061353c565b80601f0160208091040260200160405190810160405280929190818152602001828054610c169061353c565b8015610c635780601f10610c3857610100808354040283529160200191610c63565b820191906000526020600020905b815481529060010190602001808311610c4657829003601f168201915b50505091909252505050602001519392505050565b60606000600560008481526020019081526020016000206040518060c0016040529081600082018054610caa9061353c565b80601f0160208091040260200160405190810160405280929190818152602001828054610cd69061353c565b8015610d235780601f10610cf857610100808354040283529160200191610d23565b820191906000526020600020905b815481529060010190602001808311610d0657829003601f168201915b50505050508152602001600182018054610d3c9061353c565b80601f0160208091040260200160405190810160405280929190818152602001828054610d689061353c565b8015610db55780601f10610d8a57610100808354040283529160200191610db5565b820191906000526020600020905b815481529060010190602001808311610d9857829003601f168201915b50505050508152602001600282018054610dce9061353c565b80601f0160208091040260200160405190810160405280929190818152602001828054610dfa9061353c565b8015610e475780601f10610e1c57610100808354040283529160200191610e47565b820191906000526020600020905b815481529060010190602001808311610e2a57829003601f168201915b50505050508152602001600382018054610e609061353c565b80601f0160208091040260200160405190810160405280929190818152602001828054610e8c9061353c565b8015610ed95780601f10610eae57610100808354040283529160200191610ed9565b820191906000526020600020905b815481529060010190602001808311610ebc57829003601f168201915b50505050508152602001600482018054610ef29061353c565b80601f0160208091040260200160405190810160405280929190818152602001828054610f1e9061353c565b8015610f6b5780601f10610f4057610100808354040283529160200191610f6b565b820191906000526020600020905b815481529060010190602001808311610f4e57829003601f168201915b50505050508152602001600582018054610f849061353c565b80601f0160208091040260200160405190810160405280929190818152602001828054610fb09061353c565b8015610ffd5780601f10610fd257610100808354040283529160200191610ffd565b820191906000526020600020905b815481529060010190602001808311610fe057829003601f168201915b5050509190925250505060a001519392505050565b60056020526000908152604090208054819061102d9061353c565b80601f01602080910402602001604051908101604052809291908181526020018280546110599061353c565b80156110a65780601f1061107b576101008083540402835291602001916110a6565b820191906000526020600020905b81548152906001019060200180831161108957829003601f168201915b5050505050908060010180546110bb9061353c565b80601f01602080910402602001604051908101604052809291908181526020018280546110e79061353c565b80156111345780601f1061110957610100808354040283529160200191611134565b820191906000526020600020905b81548152906001019060200180831161111757829003601f168201915b5050505050908060020180546111499061353c565b80601f01602080910402602001604051908101604052809291908181526020018280546111759061353c565b80156111c25780601f10611197576101008083540402835291602001916111c2565b820191906000526020600020905b8154815290600101906020018083116111a557829003601f168201915b5050505050908060030180546111d79061353c565b80601f01602080910402602001604051908101604052809291908181526020018280546112039061353c565b80156112505780601f1061122557610100808354040283529160200191611250565b820191906000526020600020905b81548152906001019060200180831161123357829003601f168201915b5050505050908060040180546112659061353c565b80601f01602080910402602001604051908101604052809291908181526020018280546112919061353c565b80156112de5780601f106112b3576101008083540402835291602001916112de565b820191906000526020600020905b8154815290600101906020018083116112c157829003601f168201915b5050505050908060050180546112f39061353c565b80601f016020809104026020016040519081016040528092919081815260200182805461131f9061353c565b801561136c5780601f106113415761010080835404028352916020019161136c565b820191906000526020600020905b81548152906001019060200180831161134f57829003601f168201915b5050505050905086565b6003602052600090815260409020805481906113919061353c565b80601f01602080910402602001604051908101604052809291908181526020018280546113bd9061353c565b801561140a5780601f106113df5761010080835404028352916020019161140a565b820191906000526020600020905b8154815290600101906020018083116113ed57829003601f168201915b50505050509080600101805461141f9061353c565b80601f016020809104026020016040519081016040528092919081815260200182805461144b9061353c565b80156114985780601f1061146d57610100808354040283529160200191611498565b820191906000526020600020905b81548152906001019060200180831161147b57829003601f168201915b5050505050908060020180546114ad9061353c565b80601f01602080910402602001604051908101604052809291908181526020018280546114d99061353c565b80156115265780601f106114fb57610100808354040283529160200191611526565b820191906000526020600020905b81548152906001019060200180831161150957829003601f168201915b50505050509080600301805461153b9061353c565b80601f01602080910402602001604051908101604052809291908181526020018280546115679061353c565b80156115b45780601f10611589576101008083540402835291602001916115b4565b820191906000526020600020905b81548152906001019060200180831161159757829003601f168201915b5050505050905084565b6001602052600090815260409020805481906115d99061353c565b80601f01602080910402602001604051908101604052809291908181526020018280546116059061353c565b80156116525780601f1061162757610100808354040283529160200191611652565b820191906000526020600020905b81548152906001019060200180831161163557829003601f168201915b5050505050908060010180546116679061353c565b80601f01602080910402602001604051908101604052809291908181526020018280546116939061353c565b80156116e05780601f106116b5576101008083540402835291602001916116e0565b820191906000526020600020905b8154815290600101906020018083116116c357829003601f168201915b5050505050908060020180546116f59061353c565b80601f01602080910402602001604051908101604052809291908181526020018280546117219061353c565b801561176e5780601f106117435761010080835404028352916020019161176e565b820191906000526020600020905b81548152906001019060200180831161175157829003601f168201915b5050505050908060030180546117839061353c565b80601f01602080910402602001604051908101604052809291908181526020018280546117af9061353c565b80156117fc5780601f106117d1576101008083540402835291602001916117fc565b820191906000526020600020905b8154815290600101906020018083116117df57829003601f168201915b5050505050908060040180546118119061353c565b80601f016020809104026020016040519081016040528092919081815260200182805461183d9061353c565b801561188a5780601f1061185f5761010080835404028352916020019161188a565b820191906000526020600020905b81548152906001019060200180831161186d57829003601f168201915b5050505050905085565b60606000600160008481526020019081526020016000206040518060a00160405290816000820180546118c69061353c565b80601f01602080910402602001604051908101604052809291908181526020018280546118f29061353c565b801561193f5780601f106119145761010080835404028352916020019161193f565b820191906000526020600020905b81548152906001019060200180831161192257829003601f168201915b505050505081526020016001820180546119589061353c565b80601f01602080910402602001604051908101604052809291908181526020018280546119849061353c565b80156119d15780601f106119a6576101008083540402835291602001916119d1565b820191906000526020600020905b8154815290600101906020018083116119b457829003601f168201915b505050505081526020016002820180546119ea9061353c565b80601f0160208091040260200160405190810160405280929190818152602001828054611a169061353c565b8015611a635780601f10611a3857610100808354040283529160200191611a63565b820191906000526020600020905b815481529060010190602001808311611a4657829003601f168201915b50505050508152602001600382018054611a7c9061353c565b80601f0160208091040260200160405190810160405280929190818152602001828054611aa89061353c565b8015611af55780601f10611aca57610100808354040283529160200191611af5565b820191906000526020600020905b815481529060010190602001808311611ad857829003601f168201915b505050505081526020016004820180546108e29061353c565b60606000600160008481526020019081526020016000206040518060a0016040529081600082018054611b409061353c565b80601f0160208091040260200160405190810160405280929190818152602001828054611b6c9061353c565b8015611bb95780601f10611b8e57610100808354040283529160200191611bb9565b820191906000526020600020905b815481529060010190602001808311611b9c57829003601f168201915b50505050508152602001600182018054611bd29061353c565b80601f0160208091040260200160405190810160405280929190818152602001828054611bfe9061353c565b8015611c4b5780601f10611c2057610100808354040283529160200191611c4b565b820191906000526020600020905b815481529060010190602001808311611c2e57829003601f168201915b50505050508152602001600282018054611c649061353c565b80601f0160208091040260200160405190810160405280929190818152602001828054611c909061353c565b8015611cdd5780601f10611cb257610100808354040283529160200191611cdd565b820191906000526020600020905b815481529060010190602001808311611cc057829003601f168201915b50505050508152602001600382018054611cf69061353c565b80601f0160208091040260200160405190810160405280929190818152602001828054611d229061353c565b8015611d6f5780601f10611d4457610100808354040283529160200191611d6f565b820191906000526020600020905b815481529060010190602001808311611d5257829003601f168201915b5050505050815260200160048201805461066c9061353c565b60408051608081018252858152602080820186905281830185905260608201849052600254600090815260038252929092208151805192939192611dcf9284920190612f6a565b506020828101518051611de89260018501920190612f6a565b5060408201518051611e04916002840191602090910190612f6a565b5060608201518051611e20916003840191602090910190612f6a565b50506002546040519091507feb22a5d4423b2d517a084c50beaf88d4d55db44a47e9eb333a1eaf0282a2391e90600090a260028054906000611e61836134fa565b919050555050505050565b6060600060036000848152602001908152602001600020604051806080016040529081600082018054611e9e9061353c565b80601f0160208091040260200160405190810160405280929190818152602001828054611eca9061353c565b8015611f175780601f10611eec57610100808354040283529160200191611f17565b820191906000526020600020905b815481529060010190602001808311611efa57829003601f168201915b50505050508152602001600182018054611f309061353c565b80601f0160208091040260200160405190810160405280929190818152602001828054611f5c9061353c565b8015611fa95780601f10611f7e57610100808354040283529160200191611fa9565b820191906000526020600020905b815481529060010190602001808311611f8c57829003601f168201915b50505050508152602001600282018054611fc29061353c565b80601f0160208091040260200160405190810160405280929190818152602001828054611fee9061353c565b801561203b5780601f106120105761010080835404028352916020019161203b565b820191906000526020600020905b81548152906001019060200180831161201e57829003601f168201915b50505050508152602001600382018054610bea9061353c565b60606000600560008481526020019081526020016000206040518060c00160405290816000820180546120869061353c565b80601f01602080910402602001604051908101604052809291908181526020018280546120b29061353c565b80156120ff5780601f106120d4576101008083540402835291602001916120ff565b820191906000526020600020905b8154815290600101906020018083116120e257829003601f168201915b505050505081526020016001820180546121189061353c565b80601f01602080910402602001604051908101604052809291908181526020018280546121449061353c565b80156121915780601f1061216657610100808354040283529160200191612191565b820191906000526020600020905b81548152906001019060200180831161217457829003601f168201915b505050505081526020016002820180546121aa9061353c565b80601f01602080910402602001604051908101604052809291908181526020018280546121d69061353c565b80156122235780601f106121f857610100808354040283529160200191612223565b820191906000526020600020905b81548152906001019060200180831161220657829003601f168201915b5050505050815260200160038201805461223c9061353c565b80601f01602080910402602001604051908101604052809291908181526020018280546122689061353c565b80156122b55780601f1061228a576101008083540402835291602001916122b5565b820191906000526020600020905b81548152906001019060200180831161229857829003601f168201915b505050505081526020016004820180546122ce9061353c565b80601f01602080910402602001604051908101604052809291908181526020018280546122fa9061353c565b80156123475780601f1061231c57610100808354040283529160200191612347565b820191906000526020600020905b81548152906001019060200180831161232a57829003601f168201915b50505050508152602001600582018054610bea9061353c565b60606000600360008481526020019081526020016000206040518060800160405290816000820180546123929061353c565b80601f01602080910402602001604051908101604052809291908181526020018280546123be9061353c565b801561240b5780601f106123e05761010080835404028352916020019161240b565b820191906000526020600020905b8154815290600101906020018083116123ee57829003601f168201915b505050505081526020016001820180546124249061353c565b80601f01602080910402602001604051908101604052809291908181526020018280546124509061353c565b801561249d5780601f106124725761010080835404028352916020019161249d565b820191906000526020600020905b81548152906001019060200180831161248057829003601f168201915b505050505081526020016002820180546124b69061353c565b80601f01602080910402602001604051908101604052809291908181526020018280546124e29061353c565b801561252f5780601f106125045761010080835404028352916020019161252f565b820191906000526020600020905b81548152906001019060200180831161251257829003601f168201915b505050505081526020016003820180546125489061353c565b80601f01602080910402602001604051908101604052809291908181526020018280546125749061353c565b80156125c15780601f10612596576101008083540402835291602001916125c1565b820191906000526020600020905b8154815290600101906020018083116125a457829003601f168201915b5050509190925250509051949350505050565b60606000600160008481526020019081526020016000206040518060a00160405290816000820180546126069061353c565b80601f01602080910402602001604051908101604052809291908181526020018280546126329061353c565b801561267f5780601f106126545761010080835404028352916020019161267f565b820191906000526020600020905b81548152906001019060200180831161266257829003601f168201915b505050505081526020016001820180546126989061353c565b80601f01602080910402602001604051908101604052809291908181526020018280546126c49061353c565b80156127115780601f106126e657610100808354040283529160200191612711565b820191906000526020600020905b8154815290600101906020018083116126f457829003601f168201915b5050505050815260200160028201805461272a9061353c565b80601f01602080910402602001604051908101604052809291908181526020018280546127569061353c565b80156127a35780601f10612778576101008083540402835291602001916127a3565b820191906000526020600020905b81548152906001019060200180831161278657829003601f168201915b505050505081526020016003820180546127bc9061353c565b80601f01602080910402602001604051908101604052809291908181526020018280546127e89061353c565b80156128355780601f1061280a57610100808354040283529160200191612835565b820191906000526020600020905b81548152906001019060200180831161281857829003601f168201915b505050505081526020016004820180546125489061353c565b6040805160a081018252868152602080820187905281830186905260608201859052608082018490526000805481526001825292909220815180519293919261289a9284920190612f6a565b5060208281015180516128b39260018501920190612f6a565b50604082015180516128cf916002840191602090910190612f6a565b50606082015180516128eb916003840191602090910190612f6a565b5060808201518051612907916004840191602090910190612f6a565b5050600080546040519092507fdb8f0c62f433827448e3e478ee9003a3cbee79de3ad30a58a17680290bfa17c49190a2600080549080612946836134fa565b91905055505050505050565b60606000600560008481526020019081526020016000206040518060c00160405290816000820180546129849061353c565b80601f01602080910402602001604051908101604052809291908181526020018280546129b09061353c565b80156129fd5780601f106129d2576101008083540402835291602001916129fd565b820191906000526020600020905b8154815290600101906020018083116129e057829003601f168201915b50505050508152602001600182018054612a169061353c565b80601f0160208091040260200160405190810160405280929190818152602001828054612a429061353c565b8015612a8f5780601f10612a6457610100808354040283529160200191612a8f565b820191906000526020600020905b815481529060010190602001808311612a7257829003601f168201915b50505050508152602001600282018054612aa89061353c565b80601f0160208091040260200160405190810160405280929190818152602001828054612ad49061353c565b8015612b215780601f10612af657610100808354040283529160200191612b21565b820191906000526020600020905b815481529060010190602001808311612b0457829003601f168201915b50505050508152602001600382018054612b3a9061353c565b80601f0160208091040260200160405190810160405280929190818152602001828054612b669061353c565b8015612bb35780601f10612b8857610100808354040283529160200191612bb3565b820191906000526020600020905b815481529060010190602001808311612b9657829003601f168201915b50505050508152602001600482018054612bcc9061353c565b80601f0160208091040260200160405190810160405280929190818152602001828054612bf89061353c565b8015612c455780601f10612c1a57610100808354040283529160200191612c45565b820191906000526020600020905b815481529060010190602001808311612c2857829003601f168201915b505050505081526020016005820180546125489061353c565b60606000600560008481526020019081526020016000206040518060c0016040529081600082018054612c909061353c565b80601f0160208091040260200160405190810160405280929190818152602001828054612cbc9061353c565b8015612d095780601f10612cde57610100808354040283529160200191612d09565b820191906000526020600020905b815481529060010190602001808311612cec57829003601f168201915b50505050508152602001600182018054612d229061353c565b80601f0160208091040260200160405190810160405280929190818152602001828054612d4e9061353c565b8015612d9b5780601f10612d7057610100808354040283529160200191612d9b565b820191906000526020600020905b815481529060010190602001808311612d7e57829003601f168201915b50505050508152602001600282018054612db49061353c565b80601f0160208091040260200160405190810160405280929190818152602001828054612de09061353c565b8015612e2d5780601f10612e0257610100808354040283529160200191612e2d565b820191906000526020600020905b815481529060010190602001808311612e1057829003601f168201915b50505050508152602001600382018054612e469061353c565b80601f0160208091040260200160405190810160405280929190818152602001828054612e729061353c565b8015612ebf5780601f10612e9457610100808354040283529160200191612ebf565b820191906000526020600020905b815481529060010190602001808311612ea257829003601f168201915b50505050508152602001600482018054612ed89061353c565b80601f0160208091040260200160405190810160405280929190818152602001828054612f049061353c565b8015612f515780601f10612f2657610100808354040283529160200191612f51565b820191906000526020600020905b815481529060010190602001808311612f3457829003601f168201915b5050505050815260200160058201805461066c9061353c565b828054612f769061353c565b90600052602060002090601f016020900481019282612f985760008555612fde565b82601f10612fb157805160ff1916838001178555612fde565b82800160010185558215612fde579182015b82811115612fde578251825591602001919060010190612fc3565b50612fea929150612fee565b5090565b5b80821115612fea5760008155600101612fef565b7f4e487b7100000000000000000000000000000000000000000000000000000000600052604160045260246000fd5b600082601f83011261304357600080fd5b813567ffffffffffffffff8082111561305e5761305e613003565b604051601f8301601f19908116603f0116810190828211818310171561308657613086613003565b8160405283815286602085880101111561309f57600080fd5b836020870160208301376000602085830101528094505050505092915050565b60008060008060008060c087890312156130d857600080fd5b863567ffffffffffffffff808211156130f057600080fd5b6130fc8a838b01613032565b9750602089013591508082111561311257600080fd5b61311e8a838b01613032565b9650604089013591508082111561313457600080fd5b6131408a838b01613032565b9550606089013591508082111561315657600080fd5b6131628a838b01613032565b9450608089013591508082111561317857600080fd5b6131848a838b01613032565b935060a089013591508082111561319a57600080fd5b506131a789828a01613032565b9150509295509295509295565b6000602082840312156131c657600080fd5b5035919050565b6000815180845260005b818110156131f3576020818501810151868301820152016131d7565b81811115613205576000602083870101525b50601f01601f19169290920160200192915050565b60208152600061322d60208301846131cd565b9392505050565b60c08152600061324760c08301896131cd565b828103602084015261325981896131cd565b9050828103604084015261326d81886131cd565b9050828103606084015261328181876131cd565b9050828103608084015261329581866131cd565b905082810360a08401526132a981856131cd565b9998505050505050505050565b6080815260006132c960808301876131cd565b82810360208401526132db81876131cd565b905082810360408401526132ef81866131cd565b9050828103606084015261330381856131cd565b979650505050505050565b60a08152600061332160a08301886131cd565b828103602084015261333381886131cd565b9050828103604084015261334781876131cd565b9050828103606084015261335b81866131cd565b9050828103608084015261336f81856131cd565b98975050505050505050565b6000806000806080858703121561339157600080fd5b843567ffffffffffffffff808211156133a957600080fd5b6133b588838901613032565b955060208701359150808211156133cb57600080fd5b6133d788838901613032565b945060408701359150808211156133ed57600080fd5b6133f988838901613032565b9350606087013591508082111561340f57600080fd5b5061341c87828801613032565b91505092959194509250565b600080600080600060a0868803121561344057600080fd5b853567ffffffffffffffff8082111561345857600080fd5b61346489838a01613032565b9650602088013591508082111561347a57600080fd5b61348689838a01613032565b9550604088013591508082111561349c57600080fd5b6134a889838a01613032565b945060608801359150808211156134be57600080fd5b6134ca89838a01613032565b935060808801359150808211156134e057600080fd5b506134ed88828901613032565b9150509295509295909350565b6000600019821415613535577f4e487b7100000000000000000000000000000000000000000000000000000000600052601160045260246000fd5b5060010190565b60028104600182168061355057607f821691505b6020821081141561358a577f4e487b7100000000000000000000000000000000000000000000000000000000600052602260045260246000fd5b5091905056fea2646970667358221220c8620ee4c1599d77c4d1734b8a212d5081017b3dc1a393701f962fc5f22c1de564736f6c634300080b0033",
  "immutableReferences": {},
  "source": "pragma solidity >= 0.8.11 <= 0.8.11;\r\npragma experimental ABIEncoderV2;\r\n//Voting solidity code\r\ncontract Voting {\r\n\r\n      uint public partyCount = 0; \r\n    mapping(uint => party) public partyList; \r\n     struct party\r\n     {\r\n       string candidate;\r\n       string partyname;\r\n       string areaname;\r\n       string symbol;     \r\n       string aadhar;\r\n     }\r\n \r\n   // events \r\n   event partyCreated(uint indexed _partyId);\r\n\r\n  \r\n   //function  to save party details\r\n   function createParty(string memory cn, string memory pn, string memory an, string memory sy, string memory aa) public {\r\n      partyList[partyCount] = party(cn, pn, an, sy, aa);\r\n      emit partyCreated(partyCount);\r\n      partyCount++;\r\n    }\r\n\r\n     //get Party count\r\n    function getPartyCount()  public view returns (uint) {\r\n          return  partyCount;\r\n    }\r\n\r\n    function getCandidateName(uint i) public view returns (string memory) {\r\n        party memory chq = partyList[i];\r\n\treturn chq.candidate;\r\n    }\r\n\r\n    function getPartyName(uint i) public view returns (string memory) {\r\n        party memory chq = partyList[i];\r\n\treturn chq.partyname;\r\n    }\r\n\r\n    function getArea(uint i) public view returns (string memory) {\r\n        party memory chq = partyList[i];\r\n\treturn chq.areaname;\r\n    }\r\n\r\n    function getSymbol(uint i) public view returns (string memory) {\r\n        party memory chq = partyList[i];\r\n\treturn chq.symbol;\r\n    } \r\n\r\n    uint public votingCount = 0; \r\n    mapping(uint => voting) public votingList; \r\n     struct voting\r\n     {\r\n       string user;\r\n       string party;\r\n       string date;\r\n       string candidate;       \r\n     }\r\n \r\n   // events \r\n   event voteCreated(uint indexed _voteId);\r\n\r\n  \r\n   //function  to save vote details\r\n   function createVote(string memory usr, string memory party, string memory dd, string memory candidate) public {\r\n      votingList[votingCount] = voting(usr, party, dd, candidate);\r\n      emit voteCreated(votingCount);\r\n      votingCount++;\r\n    }\r\n\r\n     //get Vote count\r\n    function getVotingCount()  public view returns (uint) {\r\n          return  votingCount;\r\n    }\r\n\r\n    function getUser(uint i) public view returns (string memory) {\r\n        voting memory chq = votingList[i];\r\n\treturn chq.user;\r\n    }\r\n\r\n    function getParty(uint i) public view returns (string memory) {\r\n        voting memory chq = votingList[i];\r\n\treturn chq.party;\r\n    }\r\n\r\n    function getDate(uint i) public view returns (string memory) {\r\n        voting memory chq = votingList[i];\r\n\treturn chq.date;\r\n    }\r\n\r\n    function getCandidate(uint i) public view returns (string memory) {\r\n        voting memory chq = votingList[i];\r\n\treturn chq.candidate;\r\n    }     \r\n       \r\n    uint public userCount = 0; \r\n    mapping(uint => user) public usersList; \r\n     struct user\r\n     {\r\n       string username;\r\n       string email;\r\n       string password;\r\n       string phone;\r\n       string home_address;  \r\n       string aadhar_finger;\r\n     }\r\n \r\n   // events\r\n \r\n   event userCreated(uint indexed _userId);\r\n \r\n  function createUser(string memory _username, string memory _email, string memory _password, string memory _phone, string memory _address, string memory af) public {\r\n      usersList[userCount] = user(_username, _email, _password, _phone, _address, af);\r\n      emit userCreated(userCount);\r\n      userCount++;\r\n    }\r\n\r\n    \r\n     //get user count\r\n    function getUserCount()  public view returns (uint) {\r\n          return  userCount;\r\n    }\r\n\r\n    function getUsername(uint i) public view returns (string memory) {\r\n        user memory usr = usersList[i];\r\n\treturn usr.username;\r\n    }\r\n\r\n    function getPassword(uint i) public view returns (string memory) {\r\n        user memory usr = usersList[i];\r\n\treturn usr.password;\r\n    }\r\n\r\n    function getEmail(uint i) public view returns (string memory) {\r\n        user memory usr = usersList[i];\r\n\treturn usr.email;\r\n    }\r\n\r\n    function getAadharFinger(uint i) public view returns (string memory) {\r\n        user memory usr = usersList[i];\r\n\treturn usr.aadhar_finger;\r\n    }\r\n}",
  "sourcePath": "C:\\Users\\Admin\\Desktop\\Blockchain\\hello-eth\\node_modules\\.bin\\contracts\\Voting.sol",
  "compiler": {
    "name": "solc",
    "version": "0.8.11+commit.d7f03943.Emscripten.clang"
  },
  "schemaVersion": "3.4.4",
  "updatedAt": "2025-03-06T05:26:53.718Z",
  "networkType": "ethereum",
  "devdoc": {
    "kind": "dev",
    "methods": {},
    "version": 1
  },
  "userdoc": {
    "kind": "user",
    "methods": {},
    "version": 1
  }
}